:020000040800F2
:1000000000000120E55D00084D4D00084F4D00083F
:10001000514D0008534D0008554D000800000000E8
:10002000000000000000000000000000574D000824
:10003000594D0008000000005B4D00085D4D0008B0
:10004000355E0008355E0008614D0008355E000829
:10005000355E0008355E0008355E0008355E000834
:100060006D4D0008355E0008734D0008355E0008D0
:10007000355E0008355E0008355E0008794D0008E1
:10008000355E0008355E0008355E0008355E000804
:10009000355E0008355E0008854D0008355E0008B5
:1000A000355E0008355E0008355E0008355E0008E4
:1000B0009D4D0008A94D0008355E0008355E00081A
:1000C000355E0008355E0008355E0008355E0008C4
:1000D000355E0008B54D0008355E0008355E000845
:1000E000355E0008355E0008C14D0008355E000829
:1000F000355E0008355E0008355E0008355E000894
:10010000355E0008355E0008CD4D0008355E0008FC
:10011000355E0008355E0008355E0008355E000873
:10012000355E0008355E0008355E0008355E000863
:08013000355E0008355E000891
:1001400010B5054C237833B9044B13B10448AFF311
:1001500000800123237010BD10B4002000000000B7
:100160006885010808B5034B1BB103490348AFF389
:10017000008008BD0000000014B40020688501085C
:1001800001F0FF01102A2BDB10F0070F08D010F848
:10019000013B013A8B422DD010F0070F42B3F6D14C
:1001A000F0B441EA012141EA014122F007047FF065
:1001B00000070023F0E80256083C85EA010586EABC
:1001C000010685FA47F5A3FA87F586FA47F6A5FAF8
:1001D00087F68EB9EED1F0BC01F0FF0102F0070204
:1001E00032B110F8013B013A83EA010313B1F8D1AF
:1001F0000020704701387047002D06BF3546033890
:10020000073815F0010F07D1013015F4807F02BFC8
:10021000013015F4C03F0130F0BC0138704700BF19
:10022000034613F8012B002AFBD1181A0138704736
:1002300081F0004102E000BF83F0004330B54FEA97
:1002400041044FEA430594EA050F08BF90EA020F04
:100250001FBF54EA000C55EA020C7FEA645C7FEA97
:10026000655C00F0E2804FEA5454D4EB5555B8BFBA
:100270006D420CDD2C4480EA020281EA030382EA2B
:10028000000083EA010180EA020281EA0303362DBD
:1002900088BF30BD11F0004F4FEA01314FF4801C90
:1002A0004CEA113102D0404261EB410113F0004FA2
:1002B0004FEA03334CEA133302D0524263EB430359
:1002C00094EA050F00F0A780A4F10104D5F1200EF7
:1002D0000DDB02FA0EFC22FA05F2801841F1000152
:1002E00003FA0EF2801843FA05F359410EE0A5F126
:1002F00020050EF1200E012A03FA0EFC28BF4CF057
:10030000020C43FA05F3C01851EBE37101F000450C
:1003100007D54FF0000EDCF1000C7EEB00006EEB19
:100320000101B1F5801F1BD3B1F5001F0CD34908A3
:100330005FEA30004FEA3C0C04F101044FEA4452FA
:1003400012F5800F80F09A80BCF1004F08BF5FEA81
:10035000500C50F1000041EB045141EA050130BD61
:100360005FEA4C0C404141EB0101013C28BFB1F573
:10037000801FE9D291F0000F04BF01460020B1FABE
:1003800081F308BF2033A3F10B03B3F120020CDA91
:100390000C3208DD02F1140CC2F10C0201FA0CF06F
:1003A00021FA02F10CE002F11402D8BFC2F1200CD4
:1003B00001FA02F120FA0CFCDCBF41EA0C0190408A
:1003C000E41AA2BF01EB0451294330BD6FEA0404D3
:1003D0001F3C1CDA0C340EDC04F11404C4F12002BE
:1003E00020FA04F001FA02F340EA030021FA04F3D0
:1003F00045EA030130BDC4F10C04C4F1200220FA27
:1004000002F001FA04F340EA0300294630BD21FA64
:1004100004F0294630BD94F0000F83F4801306BF2A
:1004200081F480110134013D4EE77FEA645C18BF1E
:100430007FEA655C29D094EA050F08BF90EA020FB5
:1004400005D054EA000C04BF1946104630BD91EAAD
:10045000030F1EBF0021002030BD5FEA545C05D1B0
:100460004000494128BF41F0004130BD14F58004EF
:100470003CBF01F5801130BD01F0004545F0FE4163
:1004800041F470014FF0000030BD7FEA645C1ABF98
:10049000194610467FEA655C1CBF0B46024650EACF
:1004A000013406BF52EA033591EA030F41F40021FB
:1004B00030BD00BF90F0000F04BF0021704730B581
:1004C0004FF4806404F132044FF000054FF0000156
:1004D00050E700BF90F0000F04BF0021704730B517
:1004E0004FF4806404F1320410F0004548BF4042EC
:1004F0004FF000013EE700BF42004FEAE2014FEA41
:1005000031014FEA02701FBF12F07F4393F07F4F1B
:1005100081F06051704732F07F4208BF704793F01E
:100520007F4F04BF41F40021704730B54FF4607431
:1005300001F0004521F000411CE700BF50EA010234
:1005400008BF704730B54FF000050AE050EA0102DD
:1005500008BF704730B511F0004502D5404261EB4D
:1005600041014FF4806404F132045FEA915C3FF48E
:10057000D8AE4FF003025FEADC0C18BF03325FEA2B
:10058000DC0C18BF033202EBDC02C2F1200300FADC
:1005900003FC20FA02F001FA03FE40EA0E0021FA01
:1005A00002F11444BDE600BF70B54FF0FF0C4CF4EF
:1005B000E06C1CEA11541DBF1CEA135594EA0C0FA1
:1005C00095EA0C0F00F0DEF82C4481EA030621EADC
:1005D0004C5123EA4C5350EA013518BF52EA033517
:1005E00041F4801143F4801338D0A0FB02CE4FF0C9
:1005F0000005E1FB02E506F00042E0FB03E54FF0F9
:100600000006E1FB03569CF0000F18BF4EF0010EF0
:10061000A4F1FF04B6F5007F64F5407404D25FEAEC
:100620004E0E6D4146EB060642EAC62141EA55519F
:100630004FEAC52040EA5E504FEACE2EB4F1FD0CE1
:1006400088BFBCF5E06F1ED8BEF1004F08BF5FEA5F
:10065000500E50F1000041EB045170BD06F0004611
:1006600046EA010140EA020081EA0301B4EB5C04BE
:10067000C2BFD4EB0C0541EA045170BD41F48011B6
:100680004FF0000E013C00F3AB8014F1360FDEBFDB
:10069000002001F0004170BDC4F10004203C35DAB7
:1006A0000C341BDC04F11404C4F1200500FA05F33A
:1006B00020FA04F001FA05F240EA020001F00042DB
:1006C00021F0004110EBD37021FA04F642EB060151
:1006D0005EEA430E08BF20EAD37070BDC4F10C047B
:1006E000C4F1200500FA04F320FA05F001FA04F23F
:1006F00040EA020001F0004110EBD37041F100012B
:100700005EEA430E08BF20EAD37070BDC4F1200535
:1007100000FA05F24EEA020E20FA04F301FA05F29D
:1007200043EA020321FA04F001F0004121FA04F245
:1007300020EA020000EBD3705EEA430E08BF20EA15
:10074000D37070BD94F0000F0FD101F0004640004F
:1007500041EB010111F4801F08BF013CF7D041EAD1
:10076000060195F0000F18BF704703F000465200D5
:1007700043EB030313F4801F08BF013DF7D043EAA6
:100780000603704794EA0C0F0CEA135518BF95EA5C
:100790000C0F0CD050EA410618BF52EA4306D1D1E3
:1007A00081EA030101F000414FF0000070BD50EA02
:1007B000410606BF1046194652EA430619D094EA8C
:1007C0000C0F02D150EA013613D195EA0C0F05D176
:1007D00052EA03361CBF104619460AD181EA0301CA
:1007E00001F0004141F0FE4141F470014FF0000082
:1007F00070BD41F0FE4141F4780170BD70B54FF01D
:10080000FF0C4CF4E06C1CEA11541DBF1CEA13559C
:1008100094EA0C0F95EA0C0F00F0A7F8A4EB05047E
:1008200081EA030E52EA03354FEA013100F0888075
:100830004FEA03334FF0805545EA131343EA12633E
:100840004FEA022245EA111545EA10654FEA0026F3
:100850000EF000419D4208BF964244F1FD0404F5AC
:10086000407402D25B084FEA3202B61A65EB030508
:100870005B084FEA32024FF480104FF4002CB6EBC5
:10088000020E75EB030E22BFB61A754640EA0C0045
:100890005B084FEA3202B6EB020E75EB030E22BF85
:1008A000B61A754640EA5C005B084FEA3202B6EBC6
:1008B000020E75EB030E22BFB61A754640EA9C0085
:1008C0005B084FEA3202B6EB020E75EB030E22BF55
:1008D000B61A754640EADC0055EA060E18D04FEA13
:1008E000051545EA16754FEA06164FEAC30343EAB3
:1008F00052734FEAC2025FEA1C1CC0D111F4801F80
:100900000BD141EA00014FF000004FF0004CB6E778
:1009100011F4801F04BF01430020B4F1FD0C88BF17
:10092000BCF5E06F3FF6AFAEB5EB030C04BFB6EB22
:10093000020C5FEA500C50F1000041EB045170BD15
:100940000EF0004E4EEA113114EB5C04C2BFD4EB42
:100950000C0541EA045170BD41F480114FF0000EC6
:10096000013C90E645EA060E8DE60CEA135594EA42
:100970000C0F08BF95EA0C0F3FF43BAF94EA0C0F45
:100980000AD150EA01347FF434AF95EA0C0F7FF4BA
:1009900025AF104619462CE795EA0C0F06D152EA0E
:1009A00003353FF4FDAE1046194622E750EA4106F2
:1009B00018BF52EA43067FF4C5AE50EA41047FF403
:1009C0000DAF52EA43057FF4EBAE12E74FF0FF3C68
:1009D00006E000BF4FF0010C02E000BF4FF0010C39
:1009E0004DF804CD4FEA410C7FEA6C5C4FEA430CB2
:1009F00018BF7FEA6C5C1BD001B050EA410C0CBF01
:100A000052EA430C91EA030F02BF90EA020F002062
:100A1000704710F1000F91EA030F58BF994208BFC9
:100A200090422CBFD8176FEAE37040F00100704786
:100A30004FEA410C7FEA6C5C02D150EA013C07D1DD
:100A40004FEA430C7FEA6C5CD6D152EA033CD3D028
:100A50005DF8040B704700BF8446104662468C4622
:100A60001946634600E000BF01B5FFF7B7FF002855
:100A700048BF10F1000F01BD4DF808EDFFF7F4FF7E
:100A80000CBF012000205DF808FB00BF4DF808ED09
:100A9000FFF7EAFF34BF012000205DF808FB00BF2C
:100AA0004DF808EDFFF7E0FF94BF012000205DF84E
:100AB00008FB00BF4DF808EDFFF7CEFF94BF012003
:100AC00000205DF808FB00BF4DF808EDFFF7C4FFFC
:100AD00034BF012000205DF808FB00BF4FEA410C45
:100AE0007FEA6C5C02D150EA013C0AD14FEA430C28
:100AF0007FEA6C5C02D152EA033C02D14FF0000065
:100B000070474FF0010070474FEA410212F50012A2
:100B100015D211D56FF47873B3EB625212D94FEA44
:100B2000C12343F0004343EA505311F0004F23FA2E
:100B300002F018BF404270474FF00000704750EA83
:100B4000013005D111F0004008BF6FF00040704740
:100B50004FF00000704700BF4FEA4102B2F1E0439E
:100B600024BFB3F5001CDCF1FE5C0DD901F0004C94
:100B70004FEAC0024CEA5070B2F1004F40EB8300E4
:100B800008BF20F00100704711F0804F21D113F110
:100B90003872BCBF01F00040704741F480114FEA49
:100BA0005252C2F11802C2F1200C10FA0CF320FAD2
:100BB00002F018BF40F001004FEAC1234FEAD323EF
:100BC00003FA0CFC40EA0C0023FA02F34FEA430359
:100BD000CCE77FEA625307D150EA01331EBF4FF0E2
:100BE000FE4040F44000704701F0004040F0FE40FD
:100BF00040F40000704700BF80F0004002E000BFFA
:100C000081F0004142001FBF5FEA410392EA030FF7
:100C10007FEA226C7FEA236C6AD04FEA1262D2EB41
:100C20001363C1BFD218414048404140B8BF5B4246
:100C3000192B88BF704710F0004F40F4000020F0DF
:100C40007F4018BF404211F0004F41F4000121F0F5
:100C50007F4118BF494292EA030F3FD0A2F101023F
:100C600041FA03FC10EB0C00C3F1200301FA03F17D
:100C700000F0004302D5494260EB4000B0F5000FA0
:100C800013D3B0F1807F06D340084FEA310102F15F
:100C90000102FE2A51D2B1F1004F40EBC25008BF11
:100CA00020F0010040EA03007047490040EB0000DB
:100CB000013A28BFB0F5000FEDD2B0FA80FCACF1DC
:100CC000080CB2EB0C0200FA0CF0AABF00EBC25009
:100CD00052421843BCBFD0401843704792F0000FF7
:100CE00081F4000106BF80F400000132013BB5E74A
:100CF0004FEA41037FEA226C18BF7FEA236C21D0C0
:100D000092EA030F04D092F0000F08BF0846704724
:100D100090EA010F1CBF0020704712F07F4F04D1F2
:100D2000400028BF40F00040704712F100723CBF05
:100D300000F50000704700F0004343F0FE4040F42F
:100D4000000070477FEA226216BF08467FEA2363ED
:100D50000146420206BF5FEA412390EA010F40F4D8
:100D6000800070474FF0000304E000BF10F0004324
:100D700048BF40425FEA000C08BF704743F096430B
:100D800001464FF000001CE050EA010208BF704726
:100D90004FF000030AE000BF50EA010208BF7047AD
:100DA00011F0004302D5404261EB41015FEA010CC2
:100DB00002BF84460146002043F0B64308BFA3F1BA
:100DC0008053A3F50003BCFA8CF2083AA3EBC2539C
:100DD00010DB01FA02FC634400FA02FCC2F12002BB
:100DE000BCF1004F20FA02F243EB020008BF20F0F2
:100DF0000100704702F1200201FA02FCC2F1200258
:100E000050EA4C0021FA02F243EB020008BF20EA4C
:100E1000DC7070474FF0FF0C1CEAD0521EBF1CEA7A
:100E2000D15392EA0C0F93EA0C0F6FD01A4480EA68
:100E3000010C400218BF5FEA41211ED04FF0006351
:100E400043EA501043EA5111A0FB01310CF000407D
:100E5000B1F5000F3EBF490041EAD3715B0040EAA3
:100E6000010062F17F02FD2A1DD8B3F1004F40EB73
:100E7000C25008BF20F00100704790F0000F0CF046
:100E8000004C08BF49024CEA502040EA51207F3A0A
:100E9000C2BFD2F1FF0340EAC250704740F40000E5
:100EA0004FF00003013A5DDC12F1190FDCBF00F0D6
:100EB00000407047C2F10002410021FA02F1C2F184
:100EC000200200FA02FC5FEA310040F1000053EA20
:100ED0004C0308BF20EADC70704792F0000F00F06E
:100EE000004C02BF400010F4000F013AF9D040EA74
:100EF0000C0093F0000F01F0004C02BF490011F408
:100F0000000F013BF9D041EA0C018FE70CEAD15305
:100F100092EA0C0F18BF93EA0C0F0AD030F0004C85
:100F200018BF31F0004CD8D180EA010000F0004039
:100F3000704790F0000F17BF90F0004F084691F0F7
:100F4000000F91F0004F14D092EA0C0F01D1420231
:100F50000FD193EA0C0F03D14B0218BF084608D1FA
:100F600080EA010000F0004040F0FE4040F4000044
:100F7000704740F0FE4040F4400070474FF0FF0CD7
:100F80001CEAD0521EBF1CEAD15392EA0C0F93EA1E
:100F90000C0F69D0A2EB030280EA010C49024FEA70
:100FA000402037D04FF0805343EA111143EA101329
:100FB0000CF000408B4238BF5B0042F17D024FF4E1
:100FC000000C8B4224BF5B1A40EA0C00B3EB510FBC
:100FD00024BFA3EB510340EA5C00B3EB910F24BFA5
:100FE000A3EB910340EA9C00B3EBD10F24BFA3EB2A
:100FF000D10340EADC001B0118BF5FEA1C1CE0D1F2
:10100000FD2A3FF650AF8B4240EBC25008BF20F0A4
:10101000010070470CF0004C4CEA50207F32C2BFF8
:10102000D2F1FF0340EAC250704740F400004FF095
:101030000003013A37E792F0000F00F0004C02BFC6
:10104000400010F4000F013AF9D040EA0C0093F090
:10105000000F01F0004C02BF490011F4000F013BEA
:10106000F9D041EA0C0195E70CEAD15392EA0C0F52
:1010700008D142027FF47DAF93EA0C0F7FF470AF8A
:10108000084676E793EA0C0F04D14B023FF44CAFCD
:1010900008466EE730F0004C18BF31F0004CCAD162
:1010A00030F000427FF45CAF31F000437FF43CAF9E
:1010B0005FE700BF4FF0FF3C06E000BF4FF0010CC0
:1010C00002E000BF4FF0010C4DF804CD4FEA4002A2
:1010D0004FEA41037FEA226C18BF7FEA236C11D0EC
:1010E00001B052EA530C18BF90EA010F58BFB2EB9F
:1010F000030088BFC81738BF6FEAE17018BF40F01F
:10110000010070477FEA226C02D15FEA402C05D1D2
:101110007FEA236CE4D15FEA412CE1D05DF8040B57
:10112000704700BF844608466146FFE70FB5FFF7EA
:10113000C9FF002848BF10F1000F0FBD4DF808EDA2
:10114000FFF7F4FF0CBF012000205DF808FB00BF93
:101150004DF808EDFFF7EAFF34BF012000205DF8ED
:1011600008FB00BF4DF808EDFFF7E0FF94BF01203A
:1011700000205DF808FB00BF4DF808EDFFF7D2FF37
:1011800094BF012000205DF808FB00BF4DF808ED7A
:10119000FFF7C8FF34BF012000205DF808FB00BF47
:1011A0004FEA40024FEA41037FEA226C02D15FEA34
:1011B000402C08D17FEA236C02D15FEA412C02D196
:1011C0004FF0000070474FF0010070474FEA4002B7
:1011D000B2F1FE4F0FD34FF09E03B3EB12620DD965
:1011E0004FEA002343F0004310F0004F23FA02F0CF
:1011F00018BF404270474FF00000704712F1610F76
:1012000001D1420205D110F0004008BF6FF000404C
:1012100070474FF00000704742000ED2B2F1FE4F0F
:101220000BD34FF09E03B3EB126209D44FEA0023B5
:1012300043F0004323FA02F070474FF0000070477C
:1012400012F1610F01D1420202D14FF0FF3070471D
:101250004FF00000704700BF53B94AB9002908BFDA
:1012600000281CBF4FF0FF314FF0FF3000F06AB98B
:10127000ADF1080C6DE904CE00F006F8DDF804E0ED
:10128000DDE9022304B070472DE9F047089D0C46C4
:10129000002B4ED194468C458646B2FA82F262D932
:1012A0004AB1C2F12003914020FA03F30CFA02FC88
:1012B000194300FA02FE4FEA1C471FFA8CF6B1FBF5
:1012C000F7F44FEA1E4307FB141143EA014304FB02
:1012D00006F199420AD91CEB030304F1FF3080F0B8
:1012E0001281994240F20F81023C6344591A1FFA5D
:1012F0008EF3B1FBF7F007FB101143EA014300FB4B
:1013000006F69E420AD91CEB030300F1FF3180F080
:10131000FC809E4240F2F980634402389B1B40EA05
:10132000044000211DB1D3400022C5E90032BDE8D0
:10133000F0878B4205D90DB1C5E9000100210846AF
:10134000F5E7B3FA83F1002946D1A34202D39042D4
:10135000C0F0F080861A64EB03030120002DE6D074
:10136000C5E90063E3E7002A40F09080A1EB0C049C
:101370004FEA1C481FFA8CF70121B4FBF8F64FEA3C
:101380001E4308FB164443EA044307FB06F0984259
:1013900008D91CEB030306F1FF3402D2984200F295
:1013A000CD8026461C1A1FFA8EF3B4FBF8F008FB1A
:1013B000104443EA044300FB07F79F4208D91CEBA3
:1013C000030300F1FF3402D29F4200F2B0802046B6
:1013D000DB1B40EA0640A5E7C1F120068B4022FA5C
:1013E00006F71F4320FA06FC04FA01F343EA0C0354
:1013F000F44000FA01F8380C4FEA1349B4FBF0FE50
:101400001FFA87FC00FB1E4449EA04440EFB0CF95A
:10141000A14502FA01F20AD93C190EF1FF3A80F017
:101420008480A14540F28180AEF1020E3C44A4EBE1
:1014300009041FFA83F9B4FBF0F300FB134449EAF3
:10144000044403FB0CFCA44507D93C1903F1FF300D
:1014500067D2A44565D9023B3C4443EA0E40A0FB59
:101460000293A4EB0C049C42CE469C4651D34ED032
:1014700055B1B8EB0E0364EB0C0404FA06F6CB404E
:101480001E43CC40C5E90064002150E7C2F12003AF
:1014900020FA03F10CFA02FC24FA03F394400C4303
:1014A0004FEA1C4800FA02FE1FFA8CF7B3FBF8F073
:1014B00008FB1031230C43EA014300FB07F199427A
:1014C00008D91CEB030300F1FF362CD299422AD92C
:1014D000023863445B1AA4B2B3FBF8F108FB113382
:1014E00044EA034401FB07F3A34208D91CEB0404BC
:1014F00001F1FF3613D2A34211D902396444E41A30
:1015000041EA004139E70446F0E6084606E7C845E7
:10151000AED2B9EB020E63EB070C0138A8E73146F7
:10152000EDE7034699E73046D4E7D6467FE76344C4
:1015300002384DE70646234608460FE7023E63445D
:1015400030E700BF704700BF0121402012F004BE09
:10155000F8B5154E154C338801339BB2B3F57A7F3D
:10156000338004D9E388A3800123E38033800025FE
:101570002F462278EBB29A4200D8F8BD637002334E
:1015800054F823309A8801329A803288B2F57A7FF3
:1015900024BFDA885A801A6928BFDF8012B11B7A0B
:1015A00003B190470135E4E72EB4002030B40020A9
:1015B00073B500242246224B009441F28831214821
:1015C000214E12F047FF2246204B009440F6B831DE
:1015D0001F4812F03FFF224621461E4B022012F008
:1015E000A9FC00F07CFD00F0D7FD1B491B4A1C4BF9
:1015F000126E01254D63284691F8301000F082FAF2
:1016000001F002F9174B00942A464FF4FA61304674
:1016100012F020FF304612F0C9FF134A2146402045
:1016200012F064FE2946402012F096FD0F4B224630
:101630002146022002B0BDE8704012F07BBC00BF22
:10164000A920000890B4002060B40020E520000824
:1016500078B40020F185010874B6002044B700205A
:10166000812100081144000849150008128601086C
:101670000B4B0C4A196812780A441A601B68033332
:101680000CD9BFF34F8F0849084BCA6802F4E062D7
:101690001343CB60BFF34F8F00BFFDE7FFF758BF89
:1016A000D4D60020A8B1002000ED00E00400FA0527
:1016B00003680B4A934201D101F076B9094A93427B
:1016C0000DD1094A138801339BB2B3F57A7F138099
:1016D00005D3064BD98B59830021D98311807047DC
:1016E00000480140004401402CB4002070B00020AC
:1016F000042802D0102802D0704702F0D5BE00F0B6
:10170000EFBC00002DE9F043012891B005460E46DC
:1017100040F0948000230A93D5238DF82C304A4B57
:1017200008934A4B4A4C09934A4B0D934A4B0C93EE
:1017300008A94A4B0E93204605F0AAF828B14FF0AD
:10174000FF39484611B0BDE8F0830DF10301204692
:1017500004F077FE0028F2D19DF803306B2BEED118
:1017600001A9204604F05AFC9DF806309DF80410AB
:101770009DF80520DFF8E8803A4FC8F804409B0048
:1017800043EA4103384913434B60F007374B7B6012
:1017900009D5012A07D1364A36491B68D16020464F
:1017A00098470028CBD1B10726D47207C7D47B68ED
:1017B000D8F80400DB6808A998478146002840D182
:1017C0009DF82040631E5C425C419DF82130012B56
:1017D0009DF822304FEA440408BF44F00104012B75
:1017E00008BF44F00404032735EA060313D0013F81
:1017F0004FEA4505F8D1A4E79DF80430012BD4D178
:101800001B4B1D4A1A617B68D8F804001B68984777
:101810000028CAD093E735EA0403E8D1174B144AED
:1018200053F82530D8F80400033352F823301B68EE
:1018300098470028DBD06FF0040982E76FF00109B8
:101840007FE76FF006097CE74D5F0008395E00080E
:10185000A8B40020BD5E0008895E0008F15E0008A3
:1018600008B50020E8B40020E0B4002070B10020EA
:10187000F0B4002028B100204CB1002034860108CB
:1018800001280B4610B5114619D80E4A52F82020EF
:1018900003EA0204934312D10B4A52F8242000EBCE
:1018A00040031344094A52F82330094A1B6A52F88C
:1018B00020009847002818BF6FF0040010BD6FF09B
:1018C0000100FBE7E0B4002034860108F0B40020FA
:1018D00008B50020012808B508D1064B586804F067
:1018E000BCFF002818BF6FF0040008BD6FF00100B6
:1018F000FBE700BF08B50020012808B508D1064B5A
:10190000586804F0B4FF002818BF6FF0040008BD49
:101910006FF00100FBE700BF08B500202DE9F043A0
:101920000F4691B0002878D17F238DF82C303E4BA4
:1019300008933E4B3E4C09933E4B0D933E4B0A9011
:101940000C9308A93D4B0E93204605F079FC28B175
:101950004FF0FF34204611B0BDE8F0830DF10701D0
:10196000204605F0EFFB0028F2D19DF80730A02BB0
:10197000EED102A9204605F039FB314B9DF8082035
:10198000DFF8C080304D1A60F907304BC8F80040CE
:101990002B6009D5012A07D12D4A2E491B681160F9
:1019A000204698470028D3D12B68D8F80000DB6880
:1019B00008A99847044698BB9DF820506B1E5D42CD
:1019C0005D419DF82130012B9DF8223008BF45F084
:1019D0000205012B08BF45F004054FF0020901265E
:1019E00036EA070307D0B9F1010F4FEA4606B1D036
:1019F0004FF00109F4E736EA0503F4D1164BD8F8A5
:101A0000000053F82620124B53F822301B689847E9
:101A10000028E8D06FF004049CE76FF0010499E718
:101A20006FF0060496E700BF4D5F0008395E0008BE
:101A300010B50020BD5E0008895E0008F15E000858
:101A400048B5002068B5002050B5002094B10020B2
:101A500058B5002080B1002048860108012808B54B
:101A600018D80E4B53F8203001EA0302994311D1E4
:101A70000B4B53F822300B4A03EB400352F8233050
:101A8000094A1B6852F820009847002818BF6FF0D9
:101A9000040008BD6FF00100FBE700BF48B500205F
:101AA0004886010858B5002068B50020BFF34F8F65
:101AB0000549064BCA6802F4E0621343CB60BFF3EA
:101AC0004F8F00BFFDE700BF00ED00E00400FA0506
:101AD00038B504460D4613F055FF291B013190FB24
:101AE000F1F303FB1100044413F04CFF054603F02F
:101AF00067FA023005EB5000A4B213F015FF204640
:101B000038BD00002DE9F341884615461E460746BC
:101B100005F00AFD254CC4F8E00005F00BFDC4F803
:101B2000E40005F00DFDD4E938325340C4F8E80074
:101B3000584013F0F9FE002F1D4AC4F8F4600CBFA2
:101B40000123022313701B4A84F8DA7013701A4AB7
:101B50001A4BA4F8D88008BF134605F57A75002201
:101B6000C4F8EC50114600930220154B12F0E2F934
:101B7000144B1B7873B194F8DA30ABB9D4F8EC306D
:101B8000D4F8F02013600022009311460E4B02207F
:101B900012F0D0F94FF47A716420FFF799FF02B088
:101BA000BDE8F04103F014BA0023E9E774B5002062
:101BB000A4000020A50000205C86010860860108C2
:101BC0006586010870B500209186010810B50A4CA1
:101BD0002378012B094B04BF44F620621A601B686E
:101BE0003BB9A0604EF660213220FFF771FFA36879
:101BF0000344A36010BD00BF74B50020A000002006
:101C000007B50B4B9B684EF66021B3FBF1F201FB6D
:101C100012334FF47A71B3FBF1F3CDE900230022C4
:101C2000044B1146022012F085F903B05DF804FB65
:101C300074B50020BC860108074B10B5D3F8DC4012
:101C40003CB9064B22462146022012F073F9204689
:101C500010BD0120FCE700BF74B50020F786010825
:101C6000034B91F909205A80022283F8F92070472A
:101C700074B5002030B5124B93F8D6400E2C1ED808
:101C8000651C83F8D650105593F8D600441C83F891
:101C9000D6400C0E145493F8D600441C83F8D6405A
:101CA0000C14145493F8D600441C83F8D6400C123C
:101CB000145493F8D600441C83F8D640115430BD18
:101CC00074B5002010B501231078984200D210BDE1
:101CD000C818D45C00F8014C0133DBB2F4E7000013
:101CE00037B5304D304CB5F90230626A9A4207D0B0
:101CF0002046042240F8243F4FF4816100F0EEF9C1
:101D000095F8F930D4F8C4209A4207D02748C4F88F
:101D1000C43004224FF4956100F0E0F995F8FA30F0
:101D2000D4F8C8209A4207D02148C4F8C830042209
:101D300040F2AC4100F0D2F9D5F8F03000221B6837
:101D4000009311461B4B022012F0F4F8AB7900937C
:101D500000221146184B022012F0ECF8B4F924309E
:101D6000009300221146154B022012F0E3F8D4F83C
:101D7000C420134B142505FB0233002200931146A7
:101D8000104B022012F0D6F8D4F8C8200E4B05FBF9
:101D900002330022009311460C4B022012F0CAF8C5
:101DA00003B030BD74B5002074B6002038B70020F1
:101DB0003CB70020158701083F8701085E870108AE
:101DC000500000207A870108000000209B8701084E
:101DD00037B50546FFF730FF00283FD0204CB5B996
:101DE000022384F8F93042F21073A360A571D4F88D
:101DF000DC0012F08DFBA168D4F8DC0012F010FCBE
:101E0000D4F8DC0003B0BDE8304012F0CFBB6379FA
:101E10000133DBB200226371114600930220114BA3
:101E200012F088F863790E2B4FF0000510D9B4F842
:101E3000D8300D4865715843FFF7C8FE012384F878
:101E4000F93084F8FA30FFF74BFFFFF7D9FECEE701
:101E500049F64040FFF7BAFE2B46F0E703B030BD2D
:101E600074B50020BC87010880EE360073B55B4C6A
:101E70005B4AD4F8F030C4F8DC101968914205468A
:101E800008D900201860574B1B78012B5AD1D4F881
:101E9000F430984794F8F8202B78A12A40F08680F7
:101EA000002B00F09780032684F8F9606D7A002DEE
:101EB0004DD123790133DBB223712A4600932946A1
:101EC000494B022012F036F823796580092B84F8FB
:101ED000FA6039D9434B25711B780226012B84F80F
:101EE000F96023D1D4E93B2329461A6030463F4BA1
:101EF0002A4612F01FF8B4F8D8303D48A57158436F
:101F0000FFF764FEFFF7ECFEFFF77AFED4F8DC0083
:101F100012F0FEFAA168D4F8DC0012F081FBD4F8CC
:101F2000DC0012F043FBA06802B070BDFFF7D8FEE2
:101F3000304B2A462946304611F0FCFF4FF47A70A8
:101F400003F046F8FFF7B2FD49F64040D8E7002518
:101F5000294B25712A462946022011F0EBFFA3796F
:101F6000217B0133DBB20222994284F8FA20A3716B
:101F70000FD942F21073A3601A4B1B78012BC1D109
:101F8000D4F8F0301868C4F8EC00D4F8F43098476E
:101F9000B8E7012384F8FA301548B4F8D83084F84B
:101FA000F9205843A571FFF711FEE5E793B10D4BFA
:101FB0001B78012B04BFD4F8EC30EB600022A12386
:101FC00084F8F83011460D4B022011F0B3FFFFF7F3
:101FD00017FEA8E7002384F8F830A4E774B50020C2
:101FE000EED8FFFFA4000020DE870108FF8701086C
:101FF00080EE36002788010851880108778801089B
:10200000F8B5274C012384F8D630264B5A6B1B6B4E
:10201000A4F8D830A37984F8DA200327012B0546E9
:102020000E4627731FD0022B2CD00BB10023A371B7
:1020300094F8F830A279A12B14BF0023032384F86D
:10204000F93094F8D630142101FB0242013BDBB297
:1020500093733370A07901FB00420E322946BDE82C
:10206000F840FFF72FBE04F1220202200021FFF703
:1020700001FEA279142303FB02420E323846FFF719
:10208000F9FDD5E704F1360204200021FFF7F2FD47
:10209000A279142303FB02420E320420EFE700BFB3
:1020A00074B5002074B6002010B5094C237873B1C4
:1020B000084812F02DFA08480022202106F094FB6F
:1020C00005480022802106F08FFB0023237010BDFD
:1020D00070B6002090B4002000040048704770479C
:1020E00070470000002208B511460A4B022011F08B
:1020F00021FF4FF4FA7002F06BFFBFF34F8F0649D8
:10210000064BCA6802F4E0621343CB60BFF34F8F03
:1021100000BFFDE79588010800ED00E00400FA0526
:1021200010B5144C20460FF059FE04F12401002094
:102130000FF0B4FD04F1140101200FF0AFFD04F124
:10214000340109200FF0AAFD04F1440108200FF02A
:10215000A5FD00221146084B022011F0EBFE0FF006
:10216000DBFE0022BDE81040044B1146022011F0B6
:10217000E1BE00BF50B70020B2880108E088010826
:10218000044B43F8600F04224FF494711846FFF794
:10219000A5BF00BF44B70020034B012283F8DA201B
:1021A00000221A70FFF7BCBF74B500200B4B9022C1
:1021B0001A770B4A1269082A0BD004DC022A06D0CF
:1021C000042A03D07047102A05D070470A221A76D5
:1021D00070470E22FBE70622F9E700BF3C200020F3
:1021E000580400202DE9F8436B4D6C4CAE686378C1
:1021F000B6F5806F39D2002B35D0694F6949F86840
:10220000FEF7BCFE0146FEF705FEFEF775F9024635
:102210000B46D4E90C01FEF711F8C4E90C01614941
:102220003869FEF7ABFE0146FEF7F4FDFEF764F9F0
:1022300002460B46D4E90E01FEF700F8C4E90E0190
:1022400058497869FEF79AFE0146FEF7E3FDFEF76E
:1022500053F902460B46D4E91001FDF7EFFFC4E93C
:1022600010010136AE60BDE8F883002BFBD04E4B69
:102270000022D4E90C01FEF797F9FEF76DFC16F089
:1022800039F8FEF739F9484B0022C4E91201D4E9C4
:102290000E01FEF789F9FEF75FFC16F02BF8FEF74A
:1022A0002BF9414B0022C4E91401D4E91001FEF7D7
:1022B0007BF9FEF751FC16F01DF8FEF71DF902221E
:1022C000C4E9160116210120FFF716FB082215218B
:1022D0000120FFF711FBD4E91889D4E91201424625
:1022E0004B46FEF78BFAFEF70FFC46B242464B46D2
:1022F000D4E9140184F86860FEF780FAFEF704FC64
:102300004B46424684F86900D4E91601FEF776FA96
:10231000FEF7FAFBF2B284F86A0073210120FFF79E
:10232000EBFA94F8692074210120FFF7E5FA94F89C
:102330006A2075210120FFF7DFFA7A225C21012053
:10234000FFF7DAFA164B5B211A780120FFF7D4FA6F
:10235000002256210120FFF7CFFAC0225821012088
:10236000FFF7CAFAE0225E210120FFF7C5FA002339
:102370000022AB6063700023C4E91023C4E90E237C
:10238000C4E90C236B7C002B7FF46DAFBDE8F843F0
:10239000064808F033B900BF70B000205804002090
:1023A0003C20002000007A440000503F70D2002002
:1023B00038B5284B1B69082B3BD004DC022B15D009
:1023C000042B25D038BD102BFCD1234D234CB5F95F
:1023D000000004F0BDFAE060B5F9020004F0B8FABC
:1023E0002061B5F9040004F0B3FA0FE01A4D1B4C5C
:1023F000B5F9000004F08EFAE060B5F9020004F0CF
:1024000089FA2061B5F9040004F084FA6061D9E723
:10241000114D124CB5F9000004F086FAE060B5F9F0
:10242000020004F081FA2061B5F9040004F07CFA9E
:10243000ECE7094D094CB5F9000004F07FFAE060C3
:10244000B5F9020004F07AFA2061B5F9040004F04D
:1024500075FADBE758040020702000203C200020A3
:102460002DE9F8438C4E8D4CD6F80890A378B9F539
:10247000806F2CD24BB3D4F88830032B5FDC884AB2
:10248000216FD3681769556923F0004827F000478A
:1024900025F00045C4F87C80C4F88070C4F88450EE
:1024A0004046FEF773FE08B1C4F87080616F38468D
:1024B000FEF76CFE00B16767A16F2846FEF766FE67
:1024C00000B1A56709F10103B360BDE8F883002BF3
:1024D000FBD0D4F88830032B31DC616F206F15F00E
:1024E00023FFA16F15F020FF6E490546FEF744FE5D
:1024F000002840F0B7806C492846FEF73DFE0028D2
:1025000040F0B28069492846FEF736FE002814BF25
:10251000042302232361C4F88C50FFF747FE604B6D
:102520001A7E1B7F10211A430120FFF7E5F9D4F82A
:1025300088300133C4F88830A378002BC5D0D4F894
:102540008830042BC1D1A068FDF7D6FF4AA3D3E998
:102550000023FEF729F84AA3D3E90023FEF724F865
:102560008046894660685249FEF708FDFDF7C4FFC2
:1025700042464B46FEF718F8FEF7EEFA0546A06114
:102580002069FEF7F3FB01464FF08740FEF7F6FCAB
:10259000484907462846FEF73DFC01463846FEF707
:1025A00039FC39A3D3E90023054649464046FDF7E7
:1025B000FBFFFEF7D1FA13F01BF901462846FEF7A0
:1025C00029FCFDF799FF32A3D3E90023FEF716F9A2
:1025D000FEF7C2FA4FF07E510546FEF7C3FD002814
:1025E00044D135492846FEF7C7FD002840D128468A
:1025F000FEF712FE40F04003DBB2294F7A223B7017
:102600005C2100230120C4F88430C4F88030E367E3
:10261000C4F88C30A367636723677D60FFF76CF9AC
:102620003A785B210120FFF767F90022562101204B
:10263000FFF762F9C02258210120FFF75DF9E0227F
:102640005E210120FFF758F90023B360A370C4F89E
:102650008830737C002B7FF438AFBDE8F84317480F
:1026600007F0CCBF102355E7082353E74123C4E705
:102670007F23C2E7AFF300800492B06F2711913F30
:1026800000000060FB211940000000C0E9A8233FC2
:1026900005A3923A019D334070B0002058040020F9
:1026A0003C2000200000AF4500002F450000AF4453
:1026B00000007A44F304B53F00007C4270D2002051
:1026C0002DE9F047374DDFF8E0A0DFF8E090002477
:1026D0004FF07E582046FEF749FB5146FEF79AFB25
:1026E0004946FEF74BFC13F0CFF801464046FEF793
:1026F00087FA4FF07C51FEF78DFB05F580470646C3
:102700000146B868FEF786FBB86005F5005731460C
:10271000B868FEF77FFBB860A8683146FEF77AFB21
:102720000134B4F5806F45F8080FD3D12049214812
:10273000214F224E12F012FF21491E4812F00EFFC7
:1027400020491C4812F00AFF1F492246A1F50050FB
:1027500012F08AFF1D492246A1F5A04012F084FF25
:102760001B492246A1F5004012F07EFF174C0025C0
:1027700057F8040F3146FEF74DFB386020683146AC
:10278000FEF748FB44F8040B3146D4F8FC0FFEF783
:1027900041FB0135B5F5806FC4F8FC0FE8D1BDE809
:1027A000F08700BF70200020DB0FC94000C07F44CD
:1027B00078600020A8D10020748000206666863BE7
:1027C0007840002078200020788000207890002039
:1027D00078A0002070B1012814BF0320022059B155
:1027E000012914BF03230223834206DD0A2202FBD0
:1027F000003070470120F2E701230A2202FB0300A8
:1028000070470000000000002DE9F84300255E4CF1
:102810005E48A57001232A464FF4806112F07EF8CD
:1028200025805B4CE58004F51044237E0BB9607E67
:1028300010B10020BDE8F8830121FFF76FF80028F0
:1028400040F088800121FFF709F9003818BF012006
:102850004000B0FA80F0637E40092076002BE4D17E
:1028600002210120FEF74EFF002879D1494DDFF803
:1028700028912B6B98472B7F2A7E10211A43012029
:10288000FFF73AF8D9F80800FDF736FE36A3D3E98A
:102890000023FDF789FE36A3D3E90023FDF784FE6C
:1028A00006460F46D9F804003C49FEF767FBFDF7E2
:1028B00023FE32463B46FDF777FEFEF74DF9804694
:1028C000C9F81800D9F81000FEF750FA01464FF089
:1028D0008740FEF753FB324981464046FEF79AFA9D
:1028E00001464846FEF796FA23A3D3E90023804623
:1028F00039463046FDF758FEFEF72EF912F078FF04
:1029000001464046FEF786FAFDF7F6FD1CA3D3E923
:102910000023FDF773FFFEF71FF94FF07E510646C7
:10292000FEF720FCC0B91F493046FEF725FCA8B9C8
:102930003046FEF771FC40F04003DBB20122172164
:1029400010462B706E60FEF7D7FF002383F0010363
:1029500063766AE701207CE74123EFE77F23EDE719
:102960000123F3E7AFF300800492B06F2711913F8A
:1029700000000060FB211940000000C0E9A8233FCF
:1029800005A3923A019D3340A4D10020A8D1002094
:10299000702000203C2000205804002000007A44D1
:1029A000F304B53F00007C4237B5214CE38B94F82B
:1029B00026500133E38315BB637E012084F8260093
:1029C000D3B1A4F510420221FEF75AFF08B319480B
:1029D00003F090FA228C531C9BB2092A238410D94D
:1029E000154B1648DD70258407F008FE144B2A4667
:1029F0002946022011F09EFA002384F8263003B005
:102A000030BD00932A460F4B2946022011F092FA5E
:102A1000F2E70D4B0D4D2084DB6A9847EB69984730
:102A2000AB6A98472B6A98476B6A9847E4E700BF00
:102A300070B0002080D60020A4D1002070D20020E9
:102A40000B8901082F8901083C2000205804002030
:102A50002DE970430E461E490446FEF779FB30BB54
:102A60002046FDF749FD14A3D3E9002304460D4693
:102A7000FDF79AFD22462B46FDF796FD10A3D3E9FC
:102A800000238046894620462946FDF78DFD0246F3
:102A90000B4640464946FDF7D1FB0BA3D3E9002383
:102AA000FDF7CAFBFEF758F83060BDE870834FF0C1
:102AB0007E50F9E7AFF30080691D554D1075FF3E5C
:102AC00082E2C798BB96903F3EE8D9ACFA5CFF3FE4
:102AD00000601F432DE9F84F002481468A46934643
:102AE0009846002526462746ABB298451DD8404655
:102AF000FEF73CF9014605463846FEF73FFA15F069
:102B0000F9FB0A9B294618603046FEF737FA15F0A4
:102B1000F1FB0B9B294618602046FEF72FFA15F0B3
:102B2000E9FB0C9B1860BDE8F88F59F83510084692
:102B3000FEF770F901463846FEF764F85AF835108A
:102B400007460846FEF766F901463046FEF75AF892
:102B50005BF8351006460846FEF75CF9014620464C
:102B6000FEF750F801350446BEE700000000000003
:102B70002DE9F74F3A4B3B4CD3F81C3801932768AB
:102B80006668A568DFF8E0A000239B46019A93459C
:102B900025D143B1009B6361C4F81890C4F81C8030
:102BA00027606660A5602668304615F0A3FB67685D
:102BB0002062384615F09EFBA5686062284615F035
:102BC00099FB3946A0623046FEF71CF82946FEF70D
:102BD00019F815F08FFBE06003B0BDE8F08F1EA37D
:102BE000D3E90023FAE90201FDF708FEFDF7B4FF7F
:102BF00019A3D3E900230090DAE92001FDF7FEFDD7
:102C0000FDF7AAFF14A3D3E900238146DAE94001C6
:102C1000FDF7F4FDFDF7A0FF009980460846FEF79A
:102C2000F9F801463846FDF7EDFF494607464846A4
:102C3000FEF7F0F801463046FDF7E4FF4146064650
:102C40004046FEF7E7F801462846FDF7DBFF0BF1AB
:102C5000010B0546012399E7000000609EA0F63FA6
:102C600010180020C8B7002010B800200000000095
:102C70002DE9F04F144B95B01B7D13910446002BAA
:102C800040F08A81114A0792114A0692114A049231
:102C90000F4A1293A2F1180A0E4A4FF00009A2F14E
:102CA000100BDDE912128A421ADC53B10A4B029A68
:102CB000C3F808805F601E60084B5A60009A9D60F0
:102CC0001A6015B0BDE8F08F5804002010B800203D
:102CD00098020020C0000020B000002080020020E8
:102CE000206AFDF709FCA8A3D3E90023FDF75CFCEB
:102CF000FDF732FF8046E069FDF7FEFBA2A3D3E9B2
:102D00000023FDF751FCFDF727FF0746A069FDF7FB
:102D1000F3FB9DA3D3E90023FDF746FCFDF71CFF61
:102D2000079B0646F3E902010793FDF715FF079B92
:102D300060610090D3E92001FDF70EFF079B206141
:102D40000290D3E94001FDF707FF9149E060054695
:102D50004046FEF75FF8009A01461046FEF70EF96E
:102D60000090FDF7C9FBCDE90801DDE908230699CC
:102D70003846C1E94A238649FEF74CF8029B0146D2
:102D80001846FEF7FBF80290FDF7B6FBCDE90A0105
:102D90000699DDE90A233046C1E926237C49FEF77E
:102DA00039F801462846FEF7E9F80546FDF7A4FB89
:102DB000CDE90C01DDE90C230699E1E90223404647
:102DC0000691FDF799FB02460B46DDE90801FDF788
:102DD00015FDCDE90E01DDE90E2304993846C1E960
:102DE0004A23FDF789FB02460B46DDE90A01FDF7A0
:102DF00005FD049B07468846C3E926783046FDF763
:102E00007BFB02460B46DDE90C01FDF7F7FCCDE943
:102E10001001DDE910230499E1E902230022049165
:102E20004FF48013DDE90801FDF730FE08B1CDF85D
:102E30000090DDE90A0100224FF48013FDF726FE21
:102E400008B1CDF80890DDE90C0100224FF48013A1
:102E5000FDF71CFE00B14D46DDE90E0100224FF4E6
:102E60008013FDF713FE002840F08780494B0022B5
:102E7000DDE90E01FDF798FBFDF76EFE0646002228
:102E80004FF4801338464146FDF700FE002876D106
:102E9000404B002238464146FDF786FBFDF75CFEBD
:102EA0000746DDE9100100224FF48013FDF7EEFD27
:102EB000002866D1374B0022DDE91001FDF774FBD5
:102EC000FDF74AFE804600990846FDF7A3FFFDF78F
:102ED00013FB02460B46DAE94E01FDF7AFF9CAE9EA
:102EE0004E0102990846FDF795FFFDF705FB0246E6
:102EF0000B46DAE92A01FDF7A1F9CAE92A012946B8
:102F00002846FDF787FFFDF7F7FA02460B46DAE998
:102F10000601FDF793F9CAE9060131463046FDF78F
:102F200079FFFDF7E9FA02460B46DBE94C01FDF7B4
:102F300085F9CBE94C0139463846FDF76BFFFDF7C3
:102F4000DBFA02460B46DBE92801FDF777F9CBE90E
:102F5000280141464046FDF75DFFFDF7CDFA0B46DF
:102F60000246DBE90401FDF769F9129B0133129374
:102F7000CBE904013034012393E64E467FE74F4608
:102F80008FE7C8469FE700BF182D4454FB21194026
:102F9000F304B53F00408F40B94BBA4C586ADFF894
:102FA000E8B2FDF7DFFE0146FDF72CFE4FF06A5157
:102FB000FDF730FF06462068FDF7D8FE4FF07C5144
:102FC000FDF728FF3146FDF725FF0546E060606804
:102FD000FDF7CCFE4FF07C51FDF71CFF3146FDF7AD
:102FE00019FF20618146A068FDF7C0FE4FF07C51BB
:102FF000FDF710FF3146FDF70DFFA44960618046E3
:103000002846FEF7C3F800284CD02846FDF774FA8E
:1030100099A3D3E90023FDF7C7FAFDF79DFDDBE98E
:103020004E23DFF86CA2CDE90023DAE94C23CDE989
:103030000223984B04460146D86AFDF79FFFFDF72F
:103040005BFA06460F462046CBE95067FDF754FA77
:1030500002460B4630463946FDF7D0FB04460D4686
:1030600032463B46CAE94E4530463946FDF79CFAA2
:10307000DDE90023FDF7E2F8874BCBE94E010022A2
:1030800020462946FDF790FA22462B46FDF78CFA9A
:10309000814B0022FDF788FADDE90223FDF7CEF827
:1030A000CAE94C0179494846FEF770F800284CD02F
:1030B0004846FDF721FA70A3D3E90023FDF774FA1F
:1030C000FDF74AFDDBE92A34DFF8C491CDE900348D
:1030D000D9E92834CDE902346E4B06460146186B17
:1030E000FDF74CFFFDF708FA04460D463046CBE9E4
:1030F0002C45FDF701FA02460B4620462946FDF70E
:103100007DFB06460F4622462B46C9E92A67204624
:103110002946FDF749FADDE90023FDF78FF85E4BFC
:10312000CBE92A01002230463946FDF73DFA324606
:103130003B46FDF739FA584B0022FDF735FADDE939
:103140000223FDF77BF8C9E9280150494046FEF704
:103150001DF800284AD04046FDF7CEF9DFF830A12F
:1031600045A3D3E90023FDF71FFAFDF7F5FCDAE9E3
:103170000423CDE90023474B04460146586BFDF775
:10318000FDFEFDF7B9F906460F462046CBE9086774
:10319000FDF7B2F902460B4630463946FDF72EFBE5
:1031A000DBE9068904460D4632463B46CAE9064538
:1031B00030463946FDF7F8F942464B46FDF73EF8F2
:1031C000354BCBE90601002220462946FDF7ECF9F4
:1031D00022462B46FDF7E8F92F4B0022FDF7E4F9D4
:1031E000DDE90023FDF72AF8CAE90401DFF898B009
:1031F000DFF89CA0DBE9508942464B4640464946F1
:10320000FDF7D2F902460B46DBE94E01FDF716F851
:10321000DBE92C45CBE94E0122462B4620462946C8
:10322000FDF7C2F902460B46DBE92A01FDF706F875
:10323000DBE90823CBE92A0120462946CDE904230E
:10324000FDF7B2F902460B46DBE90601FCF7F6FF93
:10325000DAE94E23CBE9060110461946CDE90023F1
:10326000FDF7A2F902460B46DAE94C01FCF7E6FF4E
:1032700014E000BFAFF30080182D4454FB21194027
:103280003C200020B0B70020800200200000484011
:10329000B0000020C8B7002000408F40DAE92A23A0
:1032A000CAE94C0110461946CDE90223FDF77CF925
:1032B00002460B46DAE92801FCF7C0FFDAE90667A7
:1032C000CAE9280132463B4630463946FDF76CF9DB
:1032D00002460B46DAE90401FCF7B0FF1C4BCAE9D1
:1032E0000401002240464946FDF75EF9184BCBE940
:1032F0005001002220462946FDF756F9144BCBE930
:103300002C010022DDE90401FDF74EF90EA3D3E9FB
:103310000023CBE90801DDE90001FDF745F90AA327
:10332000D3E90023CAE94E01DDE90201FDF73CF9CA
:1033300005A3D3E90023CAE92A0130463946FDF73F
:1033400033F9CAE90601BCE40000000080842E4184
:1033500000408F402DE9F04F8DB000AF1C46BB6D93
:103360007A60073323F00703ADEB030DC7E90210C2
:10337000BA6DC7F828D00021684613F09EF804F50E
:1033800040733B61BB6D1E3B3B607B6803F10C0AE5
:10339000BB6803F10C09FB68002503F10C0800234E
:1033A0000426BD61FD62FB613B627B624EE0731CE3
:1033B0007B61BB6A9B5D002B41D1D8F804B0796A70
:1033C0005846FDF7E3FE70B1D8F800105846FDF7F7
:1033D000DDFE40B1D8F808105846FDF7D7FE10B111
:1033E000FE62C7F824B0D9F804B0396A5846FDF730
:1033F000CDFE70B1D9F800105846FDF7C7FE40B1B8
:10340000D9F808105846FDF7C1FE10B1BE61C7F8E3
:1034100020B0DAF804B0F9695846FDF7B7FE70B18C
:10342000DAF800105846FDF7B1FE40B1DAF808109E
:103430005846FDF7ABFE10B13546C7F81CB07E69A3
:103440000AF1040A09F1040908F104083B68B342CF
:10345000ADD87B6AA3603B6A6360FB692360FB6A4B
:10346000E362BB69BA69F96AC4E90953FB6A023DC0
:10347000023B023A0331002B05DBB86D9842C2BF14
:10348000B86A0126C654002A05DBB86D9042C2BF57
:10349000B86A01268654002D05DBB86DA842C2BF6C
:1034A000B86A012646550133994205F1010502F13A
:1034B0000102E0D13B6930349C427FF466AF34377F
:1034C000BD46BDE8F08F00002DE9F04F8FB0474CAE
:1034D000474A48494848DFF824B14FF40073009345
:1034E000474BFFF737FF606AFDF73CFC0146FDF7ED
:1034F00089FBA062424CDBF82838DBF82498DBF823
:1035000020A8DBF81C58089000260393A0463746F5
:103510000399D8F80800FDF739FE68B1D8F804001F
:103520004946FDF733FE38B1D8F800005146FDF7A3
:103530002DFE08B1013501260137102F08F13008A2
:10354000E6D10EB1CBF81C58DBF81C3813B90123B7
:10355000CBF81C382B4B049300230693274B069A79
:10356000D3F81C38DFF8A0A0934204F1300453D8FC
:10357000234CE36A206A03F5005302335AF82320F0
:10358000224B1A60A36A03F5E05302335AF8232052
:103590001F4B1A60636A03F5C05302335AF82320A5
:1035A0001C4B1A60FCF7A8FF02460B46D4E9C40185
:1035B000FCF744FEC4E9C401E069FCF79DFF024644
:1035C0000B46D4E9C601FCF739FEC4E9C601A0697F
:1035D000FCF792FF02460B46D4E9C801FCF72EFE29
:1035E000C4E9C8010FB0BDE8F08F00BF3C20002047
:1035F000A4B90020A4C10020A4C9002010180020F4
:10360000E804002010B8002070200020A0B900209D
:103610009CB9002098B9002054F8046C06F50053BA
:1036200001335AF8237006F50053033338465AF82D
:1036300023502946FDF7E4FA09903046FDF792FB46
:1036400001460C90FDF7DEFA01463846FDF7D8FA40
:103650002946FDF7D7FA01460998A54FFDF78EFCDC
:103660004FF07C51FDF7D6FB54F8083C039303F56B
:10367000E053013305465AF82390039BC7F804032F
:1036800003F5E053033348465AF823804146FDF7DB
:10369000B7FA0A900398FDF765FB01460D90FDF718
:1036A000B1FA01464846FDF7ABFA4146FDF7AAFAE2
:1036B00001460A98FDF762FC4FF07C51FDF7AAFB2A
:1036C00054F80C8CC7F8080308F5C0510131079075
:1036D0005AF821B008F5C051033158465AF82190E4
:1036E0004946FDF78DFA08F5C05102310B905AF8A2
:1036F0002130059319461846FDF784FA01465846CD
:10370000FDF77EFA4946FDF77DFA01460B98FDF775
:1037100035FC4FF07C51FDF77DFB4FF06A5183463D
:10372000C7F80C030898FDF775FB074601462846C5
:10373000FDF770FB0C9A814639461046FDF76AFB8F
:1037400001464846FDF75EFA394644F8100C0C90E5
:103750000798FDF75FFB0D9B814639461846FDF73C
:1037600059FB01464846FDF74DFA814644F8140CD2
:103770004046FDF7F7FA3946FDF74CFB39468046DF
:103780005846FDF747FB01464046FDF73BFA0C9AC9
:10379000584944F8180C074606F500561046FFF73E
:1037A00057F9023648465449FFF752F9384653490B
:1037B000FFF74EF95AF82600FCF79EFE06460998D8
:1037C0000F46FCF799FE4E4B0022FCF7EDFE8046BB
:1037D00028468946FCF790FE02460B46404649467D
:1037E000FCF7E2FE02460B4630463946FCF724FD64
:1037F000444D06460F4644486968FDF701FA4249C0
:10380000FDF7BCFBFCF778FE02460B463046394616
:10381000FCF7F4FF049BE3E902010493039B03F527
:10382000E05302335AF82300FCF766FE80460A98FC
:103830008946FCF761FE324B0022FCF7B5FE0646D6
:1038400007980F46FCF758FE02460B4630463946AD
:10385000FCF7AAFE02460B4640464946FCF7ECFC44
:1038600006460F462848A968FDF7CAF92649FDF71C
:1038700085FBFCF741FE02460B4630463946FCF715
:10388000BDFF049BC3E920010598FCF735FE064601
:103890000B980F46FCF730FE194B0022FCF784FE14
:1038A000804658468946FCF727FE02460B464046AE
:1038B0004946FCF779FE02460B4630463946FCF78E
:1038C000BBFC06460F461048E968FDF799F90E491A
:1038D000FDF754FBFCF710FE0B4602463946304616
:1038E000FCF78CFF049BC3E94001069B013334E6DF
:1038F000E80400200CB8002010B8002014B8002004
:103900000000D03F08B800200000C8422DE9F84F61
:103910000546061FDFF8A8A0D0F8FC0789469046A8
:10392000002440F2FF1B56F8041F5C450CBF2F68B3
:103930007768FDF767F93946FDF764F95146FDF7F9
:103940001DFB48F824000134B4F5007F05D0306831
:10395000E9E7214617E0204629E0002500244FF042
:103960007E5A00272646EB1BC3F30803214658F86E
:1039700023B05846FDF70AFC0028EAD059465046C5
:10398000FDF7FCFA01463046FDF73CF90137332FCD
:103990000646E8D10B49FDF7F1FA21460646FDF748
:1039A000F5FB0028D7D031465046FDF7E7FA49F835
:1039B00025000135B5F5007FD3D1BDE8F88F00BFF4
:1039C0000000404000004C422DE9F0412C4A2D49B6
:1039D0002D482C4CFFF79AFF2C4A2D492D48FFF714
:1039E00095FF2D4A2D492E48FFF790FF00254FF4F3
:1039F00000782E462F4654F8041B3846FDF702F98E
:103A0000D4F8FC1707463046FDF7FCF8D4F8FC1F45
:103A100006462846FDF7F6F8B8F101080546EAD152
:103A2000204C4FF06C51E760266160613846FDF72D
:103A3000F1F94FF06C51206007463046FDF7EAF986
:103A40004FF06C51606006462846FDF7E3F91649D1
:103A5000A06005463846FDF7DDF904F580541249AB
:103A6000C4F828083046FDF7D5F90F49C4F82408F2
:103A70002846FDF7CFF9C4F82008BDE8F08100BF63
:103A8000A4C900202808002078A00020A4C100209C
:103A90002810002078900020A4B9002028180020C9
:103AA00078800020100800200000704238B5184CC3
:103AB0004FF400552A460021204612F0FEFC2A460B
:103AC0000021A4F5005012F0F8FC2A4600214FF422
:103AD0008055A4F5804012F0F0FC2A46002104F540
:103AE000005012F0EAFC2A46002104F5405012F082
:103AF000E4FC2A46002104F5804012F0DEFC054B70
:103B000000229A605A601A60034B00229A6038BD06
:103B100078600020C8B7002070B000202DE9F04F79
:103B20008FB006460193189B0893199B09931A9B23
:103B30000A934B4B059018684A4B009106911968FF
:103B40000C91904607920B90FDF702FB041E18BFE4
:103B500001240EAB03EB840353F80C1C424B186892
:103B6000FDF714FB002875D184F0010A4FF002091B
:103B70000EAB03EB840503EB890755F8182C57F8B7
:103B8000181C03921046FDF73BF820F00043029307
:103B90000EAB03EB8A0B039A5BF8181C1046FDF77B
:103BA0002FF8324920F00040FDF7DCFA029BA8B95B
:103BB0002E4955F8246C1846FDF7D4FA00283AD15E
:103BC000304614F097FB2A49FDF724F90546002CEE
:103BD0003ED0012C14BF0320022029E023491846BF
:103BE000FDF7C0FAA0B100993046FDF70BF8414649
:103BF000FDF708F814F07EFB1D49FDF70BF90546AB
:103C00001C48019B1D601C4B18610FB0BDE8F08F74
:103C10005BF8241C55F8240CFCF7F4FF14F06AFB45
:103C20001349FDF7F7F8514605462046FEF7D2FD49
:103C3000FDF79CF8E5E757F8241C3046FCF7E2FF57
:103C400014F058FB0A49FDF7E5F849460546ECE74C
:103C50000120EDE74FF0000A02244FF0010987E749
:103C6000A0B900209CB9002098B900200000A04015
:103C700000007A440000F642800200202DE9F04F57
:103C8000DFF8B0A0DAE9064587B029462046FCF700
:103C900063FF059014F02EFB2749FDF7BBF8FCF7F6
:103CA0002BFCDAE92A67CAE9280139463046FCF7D5
:103CB00053FF834614F01EFB1F49FDF7ABF8FCF7DA
:103CC0001BFCDAE94E89CAE94C0149464046FCF73B
:103CD00043FF049014F00EFB1749FDF79BF8FCF727
:103CE0000BFC164B059ACAE9700199690291D969D2
:103CF00001911B6A0498009359460AF10C03FFF7DF
:103D00000DFF42464B4630463946FCF797FA2246AD
:103D10002B46FCF793FAFCF71FFF14F0EBFA064969
:103D2000FDF778F8FCF7E8FBCAE9720107B0BDE8D7
:103D3000F08F00BF8002002000007A44E8040020D9
:103D40002DE9F04FDFF8B0A0DAE9044587B0294645
:103D50002046FCF701FF059014F0CCFA2749FDF747
:103D600059F8FCF7C9FBDAE92867CAE926013946A0
:103D70003046FCF7F1FE834614F0BCFA1F49FDF70C
:103D800049F8FCF7B9FBDAE94C89CAE94A01494626
:103D90004046FCF7E1FE049014F0ACFA1749FDF739
:103DA00039F8FCF7A9FB164B059ACAE96E01996927
:103DB0000291D96901911B6A0498009359460AF14E
:103DC0000C03FFF7ABFE42464B4630463946FCF744
:103DD00035FA22462B46FCF731FAFCF7BDFE14F00B
:103DE00089FA0649FDF716F8FCF786FBCAE9700167
:103DF00007B0BDE8F08F00BFB000002000007A449B
:103E0000E80400202DE9F04F0022934D934B95B02C
:103E10001146022010F08EF8AB68B3F5806F40F0C9
:103E200018818F4C0294221F0192A4F10802009283
:103E30008C4AA4F13408A2F50051A1F50050FEF718
:103E400049FED8F82C10D8F83070D8F834600846FD
:103E5000FCF7E0FF394604463846FCF7DBFF014635
:103E60002046FCF7CFFE314604463046FCF7D2FF31
:103E700001462046FCF7C6FE14F03CFA7A4BC8F81F
:103E800038001F7D002F40F00581FEF719FCFFF779
:103E90009BFDFFF719FBFEF76BFE744B744CB3F8F8
:103EA0001C182046FEF7E4FE6F4B1B7D002B00F034
:103EB0006681D8F82C3005936E4B059A1A60D8F8B5
:103EC000303012936C4B129A1A606C4D6C4BD8F8D0
:103ED00034A0C3F800A0D5E94E34CDE90634D5E9C5
:103EE0002A34CDE90834D5E90634CDE90A34654BE6
:103EF000DDE90A01DE681F69D3F814B0FCF72CFE77
:103F00008146DDE90801FCF727FE0446DDE90601EC
:103F1000FCF722FE21465C4CCDF808B04A4605F17C
:103F20000C0301970096FFF7F9FDD4E94C23CDE986
:103F30000C23D4E92823CDE90E23D4E90423194620
:103F40001046CDE91023FCF707FE1390DDE90E01C2
:103F5000FCF702FE8146DDE90C01FCF7FDFD139A3A
:103F6000CDF808B004F10C03494601970096FFF71D
:103F7000D5FD51465046FCF74DFF12998246084642
:103F8000FCF748FF059981460846FCF743FF3F4B85
:103F9000CDF808B05246494601970096FFF7BEFD9E
:103FA000D8F810003A49FCF7E9FFDDE90823C8F822
:103FB0001000DDE90601FCF741F9DDE90A23FCF711
:103FC0003DF9FCF7C9FD14F095F93149FCF722FFE2
:103FD000FCF792FADDE90E23C5E97201DDE90C0177
:103FE000FCF72CF9DDE91023FCF728F9FCF7B4FD08
:103FF00014F080F92649FCF70DFFFCF77DFAC4E9BF
:104000007001FFF753FD184D18481C4900242C700F
:10401000C0F81C481B4D1C482C6000220023C1E93D
:104020000623C1E92A23C1E94E23C0E90423C0E9DC
:104030002823C0E94C23C5E90144C0E90623C0E9AF
:104040002A23C0E94E23C1E90823C1E92C23C1E991
:10405000502315B0BDE8F08F70B0002058890108DA
:10406000FCB70020786000205804002010180020C1
:10407000E8040020A0B900209CB9002080020020A4
:1040800098B90020B0B70020B0000020D8B70020B9
:1040900000007A444F4B9A68059200265A68D3F87C
:1040A00000901292A5F5104508960696002405F595
:1040B000804A2146DAF808B05846FDF75DF828B185
:1040C000DAF810002146FDF743F850B9214658466A
:1040D000FDF73EF848B1DAF810002146FDF74CF83C
:1040E00018B1059B0133CDE9053705F5005A214686
:1040F000DAF808B05846FDF73FF828B1DAF81000B2
:104100002146FDF725F850B921465846FDF720F81D
:1041100048B1DAF810002146FDF72EF818B1129BCD
:10412000089701331293D5F808A021465046FDF7B1
:1041300023F820B128692146FDF70AF848B921463D
:104140005046FDF705F838B128692146FDF714F807
:1041500010B109F101093E461F4B08359D42A6D119
:104160001C4B0EB1C3F80090089A0AB1129A5A601B
:10417000069A002A3FF491AE059A9A608DE6D8F827
:104180002810D8F82450D8F820700846FCF742FED2
:10419000294606462846FCF73DFE39460546384680
:1041A000FCF738FEA3690293E3690193236A009345
:1041B00032460A4B2946FFF7B1FC0949D8F81000EE
:1041C000FCF7DCFEC8F81000FFF758FDFFF7B8FD5C
:1041D00017E700BFB0B7002068400020D8B7002024
:1041E00000007A442DE9F047344D354B05F5104772
:1041F0001B78BE68B6F5806F39D2B3B3DFF8C480E0
:104200003149D8F80C00FCF7B9FE3049FCF702FE42
:10421000740004F102092C4945F82900D8F810006F
:10422000FCF7ACFE2949FCF7F5FD04F60209264926
:1042300045F82900D8F81400FCF7A0FE2349FCF744
:10424000E9FD41F20209631C04EB090AE11C4B443D
:1042500004F60304002245F82A00013645F821201F
:1042600045F8242045F82320BE60BDE8F087002BE8
:10427000FBD07A225C210120FDF73EFB114B5B2134
:104280001A780120FDF738FB002256210120FDF7A6
:1042900033FBC02258210120FDF72EFBE0225E21D6
:1042A0000120FDF729FBFFF7ADFD7B7C002BDCD166
:1042B000BDE8F047064806F0A1B900BF7020002015
:1042C000580400203C20002000007A440AE81C41E9
:1042D00070D200202DE9F04FDFF8108198F80330FC
:1042E00089B0002B6DD0424B1A78002A69D15B78D7
:1042F0000593002B65D13F4D0DF11F0205F51046CA
:104300001B210120FDF7E6FA9DF81F30B46883F009
:104310001003C3F30013B4F5806F337454D2364FD7
:104320003649F868FCF72AFE3549FCF773FD64004E
:1043300004F10208314945F828003869FCF71EFEEF
:104340002F49FCF767FD04F602092C4945F82900BE
:104350007869FCF713FE2A49FCF75CFD41F2020B79
:10436000631C5B4404EB0B0A002245F82A00E11CA5
:1043700045F8232004F6030445F8212045F82420BD
:1043800055F82A001D49FCF745FDFCF71FFF029078
:1043900055F829001949FCF73DFDFCF717FF01907E
:1043A000164955F82800FCF735FDFCF70FFF059A74
:1043B000144B0090114602200FF0BCFDB36801338E
:1043C000B36009B0BDE8F08FFFF71CFD347C002C12
:1043D000F7D10D4888F80340747406F00FF90B4BC1
:1043E0002246214602200FF0A5FDEAE7A4D10020D5
:1043F00058040020702000203C20002000007A4457
:104400000AE81C418289010870D200200B8901084A
:1044100010B5224C236833F07F433DD06378C3B19D
:10442000002216210120FDF767FA00221521012044
:10443000FDF762FA002273210120FDF75DFA0022E8
:1044400074210120FDF758FA002275210120FDF7A3
:1044500053FAA37813B1124B02221A7600225C2180
:104460000120FDF749FA00225B210120FDF744FA03
:10447000002256210120FDF73FFA00225821012099
:10448000FDF73AFA00225E210120FDF735FABDE87A
:104490001040044806F08CB810BD00BF580400203E
:1044A0003C20002070D20020F7B51F4D00F088FDA1
:1044B0002B6898421BD31D4FFE787EBB00F080FD19
:1044C0002B681B4C6433984288BF26702678731C77
:1044D000237076B900F074FD237800F5FA70286037
:1044E000324600933146134B02200FF023FD03B0F8
:1044F000F0BD00252A46104B2570294602200FF0FA
:1045000019FDFFF7D3FA0D4B0D485D610122FA70DA
:104510005A7403B0BDE8F04006F04AB800F050FD10
:1045200000F57A702860E2E7A8000020A4D10020FE
:10453000ACB700208E890108BD89010870B0002049
:1045400070D200201348144A08B54FF00043C0E968
:1045500000230422426101220023C2614FF48051F2
:104560000722C0E90233C0E90933C0E90C12036134
:104570000383837680F8203080F82C30826380F8C3
:104580003C30C36403F050F818B1BDE8084000F0B7
:104590003FBB08BDBCD10020002401400268084B8D
:1045A0009A4282B00AD14FF0B0431A6E42F40072C0
:1045B0001A661B6E03F400730193019B02B07047EF
:1045C000002401400268054B9A4201BF4FF0B042FF
:1045D000136E23F400731366704700BF002401407C
:1045E00030B585B000240546CDE901440394FFF7BA
:1045F000A9FF144803F0ACFB08B100F009FB114817
:10460000039401A9CDE9015403F06CF908B100F05D
:10461000FFFA0C4803F0C6FA08B100F0F9FA4FF0BF
:10462000FF31084803F000F9064803F073FB054822
:1046300003F054F90446034803F016FB204605B086
:1046400030BD00BFBCD10020014B024A1A60704748
:10465000BCD100200024014008B50948FFF7C0FF85
:1046600068B1084BB3F8AA304FF6FF72934216BFF9
:1046700040F6E442044B5343B3FBF0F398B208BD59
:10468000002000B40075FF1FD8084C0013B50023AC
:10469000ADF80630FFF7E0FF04461948FFF7A0FF2A
:1046A000184BB3F8C820B3F8A8108A4204FB00F0F6
:1046B00018D040F6E443B0FBF3F364205B1A4343A5
:1046C000521A93FBF2F31E331BB2ADF80630BDF85D
:1046D00006305BB21B02ADF80630BDF8060000B232
:1046E00002B010BD4FF47A7240F6FF73B0FBF3F3E3
:1046F0005343A3F53923A3F50C6340F6C412E0E756
:10470000001000B00075FF1F4FF0B04307B59A6C62
:1047100042F004029A649A6C02F004020192019A37
:104720009A6C42F001029A649B6C002203F0010330
:10473000009311460F20009B03F0A8FB0F2003B04D
:104740005DF804EB03F0D4BB08B503F04DFE10B1E7
:104750006FF0040008BD064B9A6942F040429A612E
:104760004CF2FA321A6103F051FE0028F2D0EFE762
:1047700000400058F0B585B000230D460093064672
:10478000A8B3FFF7E1FF044670BB03F02DFE88BB22
:104790001A481B4A02230193D0F8E01506F178432A
:1047A00002EA8121B3FBF1F701FB1733DB0A029325
:1047B000D0F8E00505F178410139314402EA802260
:1047C000B1FBF2F002FB1011C3EBD12301336946B8
:1047D00001A8039303F09AFE20B1022814BF6FF0E2
:1047E0000104012403F012FE204605B0F0BD6FF075
:1047F0000504F9E76FF00404F6E700BF0070FF1F3F
:1048000000FCFF03014B18600020704720D20020FD
:104810002DE9F04FB0F1006F89B006460F46904683
:10482000C0F0C080DFF89091644DD9F8E03505EA1A
:10483000832303F10063013B984200F2B380002917
:1048400000F0B38040EA02035B0740F0AE80FFF760
:104850007BFF044690BB03F0C7FD002840F0A88012
:10486000D9F8E015009705EA812106F17842B2FBFC
:10487000F1F301FB132208F17843013B3344B3FB0E
:10488000F1F001FB1033DB0A01334FEAD22AA3EB2C
:10489000D222012A039388BFC6F30A050AF580379E
:1048A000C6F108038CBFC5F500654546FF02B34657
:1048B0000693039B9A4505D303F0A8FD204609B053
:1048C000BDE8F08FA6F10803069A1A4495421CD859
:1048D000009B04950193CDF814B04FF00009059B9F
:1048E00009EB0301049B99453DD3009BAB442B444A
:1048F000A8EB0505B5F5006F009328BF4FF40065E0
:104900000AF1010A07F50067D3E753F8081F5A6850
:10491000B2F1FF3F08BFB1F1FF3FD5D0284B186877
:1049200010B96FF00504C7E727B14FF400623946AC
:104930000FF006FCDFF888900099D9F80030CBF32F
:104940000A001844AAB20FF0FBFB4FF4006138468E
:10495000FFF710FF00BBD9F8003001934FF400635C
:1049600005970493B9E7019B07914B4402930120FB
:10497000D3E9002303F084FD88B90799019BD1E9AD
:10498000000259F80310029B5B689A4208BF8842F4
:1049900005D109F10809A2E76FF001048CE76FF077
:1049A000030489E74FF0FF3488E76FF0050485E7DB
:1049B0006FF0040482E700BF0070FF1F00FCFF03DC
:1049C00020D20020B1F1006F70B510D30B4BD3F89B
:1049D000E0650B4B03EA862303F10063013B994238
:1049E00005D838B192B20FF0ABFB002070BD4FF08C
:1049F000FF30FBE76FF00500F8E700BF0070FF1F16
:104A000000FCFF03B0F1006F10B40DD3084BD3F8D6
:104A1000E045084B03EA842303F10063013B98421D
:104A200002D810BCFFF7A6BE4FF0FF3010BC704795
:104A30000070FF1F00FCFF034FF0B04382B0DA6C40
:104A40000243DA64DB6C03400193019B02B07047C0
:104A5000F0B587B01422002101A811F02EFD04202A
:104A6000FFF7EAFF0220374DFFF7E6FF0120FFF7CF
:104A7000E3FF8020FFF7E0FF2021002228460024EA
:104A800003F0B2FE03264FF64A6301A92846CDE99A
:104A90000136039403F088FD42F2440301A92A4839
:104AA0000394CDE9013603F07FFD48F2F37301A9C9
:104AB0004FF09040CDE901360827039403F074FDD0
:104AC00001A922480394CDE9017603F06DFD022689
:104AD00004224FF4041301A92846CDE901230396CB
:104AE00003F062FD4FF488134FF4C871CDE9011350
:104AF000284601A9039603F057FD01232020CDE9A4
:104B0000010301A92846CDE9036403F04DFD2246C7
:104B10002146384603F0BAF9384603F0E9F922464F
:104B200021460A2003F0B2F90A2003F0E1F92246F7
:104B30002146162003F0AAF9162003F0D9F907B090
:104B4000F0BD00BF0004004800080048001C0048F9
:104B500000B59BB04822002108A811F0AEFC1C2231
:104B6000002101A811F0A9FC04F01CFA4FF0B0429A
:104B70000120D2F8903023F01803C2F89030D2F818
:104B8000003423F4C06343F40073C2F80034D2F855
:104B9000003403F4C0630093009B24230893812313
:104BA0000B930023CDE91003B02208A8CDE912230E
:104BB00004F070FB08B172B6FEE74F23CDE9013077
:104BC000CDE9030005900790022101A804F0FCFD47
:104BD00008B172B6FEE71BB05DF804FB08B502F041
:104BE0007FFCFFF7B5FFFFF733FF00F073FD00F028
:104BF00097FA00F07BFA4FF4FA7000F0E9F90348F5
:104C000005F0D6FC00F06DFDFCE700BFBCD2002033
:104C100072B6FEE700B58DB02C22002101A811F07C
:104C20004CFC1748174B03601F2383604FF08042F2
:104C30000023C0E90433C0E9072383614FF4807384
:104C4000436205F081F808B1FFF7E2FF0C4805F078
:104C5000A7F908B1FFF7DCFF4FF0005300220793DC
:104C6000074808924FF4807301A9029206920B93B1
:104C700005F0CAF808B1FFF7CBFF0DB05DF804FBF3
:104C800024D200200028004010B5044690B03822FD
:104C9000002102A811F011FC2268194B9A422CD174
:104CA0004FF48033029302A84FF480730F9304F003
:104CB000C9FE08B1FFF7ACFF4FF0B0430220D3F8B4
:104CC000902042F40042C3F890209A6D42F4806232
:104CD0009A659B6D002203F4806311460193019B4A
:104CE00003F0D4F8022003F003F900222A20114631
:104CF00003F0CCF82A2003F0FBF810B010BD00BF81
:104D0000002800407047000008B502F0FFFB044B8C
:104D10000120C3F88800BDE8084004F09BB900BF3B
:104D20000004005802F0F9BB08B502F0F6FBBDE83C
:104D3000084000F069BC08B502F0E8FBBDE8084097
:104D40000121002004F036B970477047FEE7FEE706
:104D5000FEE7FEE7FEE7704770477047FCF788BC48
:104D6000014805F043B900BF24D20020042003F01D
:104D700059BD102003F056BD014803F0A3BA00BF8F
:104D800010D3002008B5802003F04CFDBDE808409A
:104D9000014803F0FDBA00BF20B10020014805F032
:104DA00049BC00BFBCD20020014805F043BC00BF95
:104DB00070D20020014805F035BE00BF70D300203E
:104DC000014804F047BF00BF24D20020014805F08D
:104DD00036BB00BF5CD20020054808B5082303603D
:104DE00005F04AF918B1BDE80840FFF711BF08BD4A
:104DF0005CD200204FF0B04307B55A6E42F001027A
:104E00005A665B6E002203F00103019311463220C3
:104E1000019B03F03BF8322003B05DF804EB03F094
:104E200067B800000CB407B5054A05AB1021019323
:104E30000FF052FC03B05DF804EB02B0704700BF06
:104E4000FC89010830B585B0044602A80D460FF074
:104E5000BBFABDF90C30064A00931021029B204694
:104E6000FFF7E0FF2046FBF7DBF9288005B030BDF7
:104E7000FC8901084FF0B04210B5936823F4004359
:104E800093600FF0DDFA0E4B01241C7000F0A6F8C1
:104E90000EF0E6FF0B480EF0FDFF0B4B4FF4004207
:104EA0001A6102200EF0FCFFFFF7CEFB00F0C4F801
:104EB0000FF0F0F821462046BDE810400FF00AB987
:104EC00068D20020454E0008004000580FF018B985
:104ED00008B5FFF7C1FB40F6B83398420CD8B0F5DF
:104EE000E16F0BD3FE23A0F5E16058434FF49663C6
:104EF000B0FBF3F0C0B208BDFE20FCE70020FAE7EB
:104F00007FB5684600F07CF80198FCF75FF900B2C5
:104F100007B05DF804FB0000194A38B5D2F88035B7
:104F2000591C044619D102F0FFFA054602F008FBAD
:104F3000054402F0FFFA2B0EE3712B0CA3712B0A30
:104F40006371030EE370C0F30742C0F307232571BA
:104F5000C0B2A2706370207038BD190AC37181712C
:104F6000190C1B0E41710371D2F88435C370D2F84D
:104F70008405C0F30722C0F30743000EE9E700BF32
:104F80000070FF1F38B5094BD3F88035036001333B
:104F9000054609D102F0C8FA044602F0CBFA4440B3
:104FA00002F0CEFA44402C6038BD00BF0070FF1FF5
:104FB000012102200FF078B8002102200FF074B810
:104FC000024B187808B100F03FB9704768D2002052
:104FD00082B00190019802B000F0D2B9074A08B53A
:104FE000D2F8903043F48043C2F8903002F0AEFA29
:104FF00002F0B4FABDE8084002F0B8BA0008005860
:1050000010B50446FFF742FB074BA36040F30F20A7
:10501000FBF7ACFE054B064A2360064B6060C4E913
:105020000323002010BD00BF0000484200007A4466
:105030000D093E00AB0305000020704701207047BA
:1050400008B511F08DFA162303604FF0FF3008BD4C
:1050500008B511F085FA16230360FEE770B50D461A
:1050600014460E46731B9C4201DC204670BDAFF314
:10507000008006F8010BF5E770B50D4614460E46A4
:10508000731B9C4201DC204670BD16F8010BAFF388
:105090000080F5E74FF0FF3070474FF400534B604E
:1050A0000020704701207047002070470B4A1168AC
:1050B00010B5034609B90A491160106809490A4C3C
:1050C0000344091B8B4206D911F04AFA0C230360F2
:1050D0004FF0FF3010BD1360FCE700BF6CD2002022
:1050E000B8F5002000000120000800000A480B4A23
:1050F00008B52F23C0E90023002340F2E732C0E9BE
:105100000232C0E90433836105F076FB18B1BDE8D3
:105110000840FFF77DBD08BDBCD20020004401401F
:105120000E4B0F480F4A596A2F2310B5C0E90023D0
:105130000D4B00224C00A3EB4103B3FBF4F3053B02
:10514000C0E90332802382604261836105F054FB31
:1051500018B1BDE81040FFF75BBD10BD3C2000203A
:1051600070D200200048014040420F0007B503689C
:10517000184A934215D14FF0B0431C201A6E42F4E6
:1051800000321A661B6E002203F4003300931146AE
:10519000009B02F07BFE1C2003B05DF804EB02F0E4
:1051A000A7BE0D4A934211D14FF0B0431D201A6E95
:1051B00042F480221A661B6E03F4802301930022BE
:1051C0000521019B02F062FE1D20E5E703B05DF8BA
:1051D00004FB00BF0044014000480140014B186837
:1051E000704700BF08D300200320704708B5014670
:1051F0004FF47A7200238002890DFCF72DF808BD68
:105200004FF47A73A0FB0303800A40EA835070478F
:10521000034B98689A689042FBD1C043704700BF27
:105220000028004008B5FFF7F3FF014B186008BDE8
:1052300008D3002008B5FFF7EBFF024B1B68C01A2C
:1052400008BD00BF08D30020024B187808B1FFF753
:10525000DFBF70470CD3002010B5074B074C01226D
:10526000DA654FF48071204604F0BAFC4FF0FF334A
:105270002363002010BD00BF0028004024D200207E
:1052800002460021014804F0C2BE00BF24D2002023
:1052900002460121014804F0BABE00BF24D200201A
:1052A00010B58CB02C220021044601A811F005F99C
:1052B000FFF7D2FF0C4B0D481B681C4400230893DA
:1052C00006934FF00053E443079301224FF4807399
:1052D00001A902940B9304F097FD08B1FFF798FC25
:1052E00000200CB010BD00BF08D3002024D2002045
:1052F00038B50546FFF78CFF02210446074804F045
:105300008DFEC4F309024FF47A71A2FB0121920AC7
:10531000A30A2A8043EA805038BD00BF24D200206F
:105320000148002104F07ABE24D200200148012166
:1053300004F074BE24D20020F8B50F4D2E78CEB9FB
:105340000E4C4FF0FF372763FFF764FCFFF784FF35
:105350004FF48071204604F043FC2046276304F09C
:1053600001FE32462046022104F051FEFFF75AFFAB
:1053700001232B700020F8BD0CD3002024D2002084
:10538000014610B54FF47A7200238002890DFBF7B5
:1053900063FF0146FFF73CFF0446FFF739FF031B9D
:1053A0008B4200D310BD00BFF7E70FF051B90000EA
:1053B00010B5064C0221204604F030FE0221421CAA
:1053C0002046BDE8104004F022BE00BF24D20020D9
:1053D0001648174A08B54FF41653C0E900230023B6
:1053E0000C22C0E90233C0E90523C0E90733C0E954
:1053F0000933036106F0FFF808B1FFF709FC0B4819
:10540000002106F070FA08B1FFF702FC07480021FE
:1054100006F089FA08B1FFF7FBFB044806F043FAEF
:1054200018B1BDE80840FFF7F3BB08BD70D30020FA
:105430000044004030B597B005461422002103A86F
:1054400011F03BF83822002108A811F036F82A683C
:105450002C4B9A4253D10223089308A82A4B0A9353
:1054600004F0F0FA08B1FFF7D3FB4FF0B04301218D
:105470009A6D264C42F400329A659A6D02F400321D
:105480000292029ADA6C42F00102DA64DB6C03F0F9
:10549000010301930C22019B0223CDE90323032383
:1054A000CDE905134FF09040072303A9079303F0BC
:1054B0007BF817481423C4E900034FF0100C0023B5
:1054C00080222046C4E902C3C4E90423C4E90633A8
:1054D000236202F081FD08B1FFF79AFB0B4810210F
:1054E00002F046FF08B1FFF793FB00222520EC678E
:1054F0001146A56202F0CAFC252002F0F9FC17B0A3
:1055000030BD00BF0044004004000C0010D3002058
:105510005800024002680C4B9A4210B5044612D162
:105520004FF0B0420C21936D23F4003393654FF09C
:10553000904003F0E5F8E06F02F0C0FDBDE81040D8
:10554000252002F0E3BC10BD0044004008B50A4627
:105550000146024805F0CAF9002008BD70D30020BA
:1055600013B5114B114C18604FF40013009302ABAC
:1055700013E90600204606F03AF92368DA69D103F8
:10558000FCD4DA695202FCD59A68084842F48002D9
:105590009A6006F072F906490448012206F0E0F824
:1055A000002002B010BD00BF04D4002070D3002042
:1055B0000CD4002008B5074B1860FFF7A5F8FFF7DB
:1055C00007FF054AD2F8803043F00063C2F880300C
:1055D000002008BD08D400200008005808B54FF08E
:1055E000B04308489A6B42F400329A639A6B22F4F3
:1055F00000329A63FFF78EFF0F2002F087FC002035
:1056000008BD00BF70D3002008B5074805F0F3FFC0
:1056100008B1FFF7FDFA054802F0DEFC18B1BDE85D
:105620000840FFF7F5BA08BD70D3002010D3002062
:105630000268044B9A4203D1034B00201B681847B1
:10564000704700BF0044004008D4002002680B4BA4
:105650009A4210B504460FD1094B1B682BB1D0F804
:10566000902012B907480121984720460549BDE816
:105670001040012206F074B810BD00BF0044004085
:1056800004D400200CD40020014B00221A70704773
:105690000DD40020014B1878704700BF0DD40020B6
:1056A00010B5034C034922780EF04AFD207810BD56
:1056B0000DD400200ED4002010B504490446F22277
:1056C0000348FCF79DFC204610BD00BF0DD4002010
:1056D0000ED4002008B5FFF7CDFBBDE8084000F070
:1056E00087BA4FF0FF300EF06FBD70477047000073
:1056F000014BD870704700BFA4B00020014B187454
:10570000704700BFA4B0002007B5064B00221B5C09
:1057100000931146044B02200EF00CFC03B05DF820
:1057200004FB00BF728A0108588A010808B50220EC
:1057300000210EF011FDBDE8084001480EF036BF13
:1057400054D60020002101200EF006BD10B54EF603
:105750006023084C002818BF0346074823600EF05A
:10576000D7FE216804480EF05BFFBDE810400248F8
:105770000EF01CBFA0B0002054D600201FB5044678
:10578000002837D00378002B2ED01F480EF00EFFD4
:10579000002211461D4B02200EF0CCFB94F918306C
:1057A000039394F90A300293237C0193E3680093F6
:1057B00000221146164B03200EF0BCFB0022154BB5
:1057C000114602200EF0B6FB237A012B14D1617A28
:1057D000114A124B002918BF1346002200931146AC
:1057E0000F4B02200EF0A6FB0E492046FCF73EFBB5
:1057F0000D4B186004B010BD00220C4B1146022066
:105800000EF098FBF0E700BF30D500207B8A01083E
:10581000AC8A0108DD8A0108778A0108768A0108C6
:10582000EA8A010854D60020A0B00020FB8A0108B3
:1058300037B5044628B390F9065025BB13480EF03F
:1058400067FE134B2A46294602200EF073FBE379CC
:10585000012B0CBF0F4B104B0022114602200EF003
:1058600069FB94F90600FCF7B3FA94F9053001934B
:1058700094F9043000930022084B114603200EF0E7
:1058800059FB03B030BD064BE6E700BF00D5002052
:10589000098B01081E8B01083B8B01086F8B0108E7
:1058A000588B01080A460149FFF78CB800F003083D
:1058B00038B51B480EF02CFE06F09EFC044650B195
:1058C0000022184B114602200EF034FBBDE8384090
:1058D00015480EF06BBE154B154D024601460220D1
:1058E0000EF028FB134B1B78012B11D10220124B19
:1058F0002870224621460EF01DFB104806F008FBDA
:105900002878012106F05CF805480EF04FFEDDE72F
:1059100001232B7022460A4B21460220EBE700BFF1
:1059200054D60020988B01083CD60020B68B010885
:10593000A4000020A5000020CA8B0108A4B000200C
:10594000EA8B010800B503468DB000282CD04078C2
:1059500002280AD003282AD0164B00221146022022
:105960000DB05DF804EB0EF0E5BA1A7F0B92DA7E0B
:105970000A929A7E09925A7E08921A7E0792DA7DDE
:1059800006929A7D05925A680492DA68039293F916
:1059900014200292B3F9122001921B7C0093002282
:1059A000054B11460EF0C6FA0DB05DF804FB034B33
:1059B000D3E700BF098C0108208C0108928C0108F4
:1059C00001284FF000020CBF024B034B114602208E
:1059D0000EF0B0BAB18C0108C38C0108054B1A78DF
:1059E000054B1B789A4203D1002108200EF0B4BB6E
:1059F000704700BFA4000020A500002008B506F0F5
:105A000004FC80B906F0C2F801280CD1BFF34F8F17
:105A10000549064BCA6802F4E0621343CB60BFF34A
:105A20004F8F00BFFDE708BD00ED00E00400FA0560
:105A300030B5044687B00D46002953D02A480EF0F1
:105A4000B5FD2B78EBB1E4B16368D3B11B7801935A
:105A5000237800930022254B114602200EF06AFAAB
:105A60002378022B2ED0032B0BD16378012B08D186
:105A700063681878012802D0022800D008B906F01F
:105A800079F92B7C052B16D895F90A20059295F902
:105A900009200492164A52F82330039395F90830EE
:105AA000029323780193EB6800930022114B114677
:105AB00003200EF03FFA2946204607B0BDE83040EB
:105AC000FCF7CEB86378012BDBD163681A7812F04B
:105AD000010216BF0022084B084B114603200EF0AE
